RHRCOMMISSIONMFBBR     20160815                                                                                                                                                                         
10000006000      C49      DANIEL C SULLIVAN             30293E102TROYEKAREA2016042700000000250000000000000001187504750000150247194         F100500000000000000000087744555520000000230414700001085000340
A0000006000      C49      DANIEL C SULLIVAN             30293E102TROYEKAREA20160427MRKE000000130000000000000000032500000150247194         F 005000000000000000000877445555                              
A0000006000      C49      DANIEL C SULLIVAN             30293E102TROYEKAREA20160427AMFE000000125000000000000000031250000150247194         F 005000000000000000000877445555                              
A0000006000      C49      DANIEL C SULLIVAN             30293E102TROYEKAREA20160427COMM000000220000000000000000055000000150247194         F 005000000000000000000877445555                              
10000006000      A04      CHERYL D DORKO                30293E102DREHECHRID2016042700000000200000000000000000950004750000150247581         F125300000000000000000087455444420000000184331800001085000340
A0000006000      A04      CHERYL D DORKO                30293E102DREHECHRID20160427ADVC000000130000000000000000026000000150247581         F 2530000000000000000008745544442                             
A0000006000      A04      CHERYL D DORKO                30293E102DREHECHRID20160427AMFE000000125000000000000000025000000150247581         F 2530000000000000000008745544442                             
A0000006000      A04      CHERYL D DORKO                30293E102DREHECHRID20160427COMM000000220000000000000000044000000150247581         F 2530000000000000000008745544442                             
10000006000      A04      CHERYL D DORKO                30293E102GERBEGLEND2016042700000000100000000000000000475004750000150247590         F125300000000000000000011233214420000000006165900001085000340
A0000006000      A04      CHERYL D DORKO                30293E102GERBEGLEND20160427MRKE000000130000000000000000013000000150247590         F 2530000000000000000001123321442                             
A0000006000      A04      CHERYL D DORKO                30293E102GERBEGLEND20160427AMFE000000125000000000000000012500000150247590         F 2530000000000000000001123321442                             
A0000006000      A04      CHERYL D DORKO                30293E102GERBEGLEND20160427COMM000000220000000000000000022000000150247590         F 2530000000000000000001123321442                             
10000006000048   000025   DONALD K LAXTON               30293E102MEYERGERIA2016042700000000065000000000000000308754750000150247184         F125300000000000000000011144221120000000059907800001085000240
A0000006000048   000025   DONALD K LAXTON               30293E102MEYERGERIA20160427ADVC000000130000000000000000008450000150247184         F 2530000000000000000001114422112                             
A0000006000048   000025   DONALD K LAXTON               30293E102MEYERGERIA20160427AMFE000000125000000000000000008125000150247184         F 2530000000000000000001114422112                             
A0000006000048   000025   DONALD K LAXTON               30293E102MEYERGERIA20160427COMM000000220000000000000000014300000150247184         F 2530000000000000000001114422112                             
10000006000048   000025   DONALD K LAXTON               30293E102MEYERBARR-2016042700000000063800000000000000303054750000150247582         F125300000000000000000030562533320000000058801800001085000240
A0000006000048   000025   DONALD K LAXTON               30293E102MEYERBARR-20160427ADVC000000130000000000000000008294000150247582         F 253000000000000000000305625333                              
A0000006000048   000025   DONALD K LAXTON               30293E102MEYERBARR-20160427AMFE000000125000000000000000007975000150247582         F 253000000000000000000305625333                              
A0000006000048   000025   DONALD K LAXTON               30293E102MEYERBARR-20160427COMM000000220000000000000000014036000150247582         F 253000000000000000000305625333                              
10000006002      1703     ROBERT S FENTON               30293E102TRAVIWILLE2016042700000000250000000000000001187504750000150247337         F125300000000000000000088877887720000000230414700001085000160
A0000006002      1703     ROBERT S FENTON               30293E102TRAVIWILLE20160427ADVC000000130000000000000000032500000150247337         F 2530000000000000000008887788772                             
A0000006002      1703     ROBERT S FENTON               30293E102TRAVIWILLE20160427AMFE000000125000000000000000031250000150247337         F 2530000000000000000008887788772                             
A0000006002      1703     ROBERT S FENTON               30293E102TRAVIWILLE20160427COMM000000220000000000000000055000000150247337         F 2530000000000000000008887788772                             
RTRCOMMISSION0000026                                                                                                                                                                                    
